:020000040800F2
:10000000C8090020954E0008590800085B08000840
:100010005F08000863080008670800080000000087
:100020000000000000000000000000006B08000855
:100030006D080008000000006F0800087108000843
:10004000AF4E0008AF4E0008AF4E0008AF4E00089C
:10005000AF4E0008AF4E0008AF4E0008AF4E00088C
:10006000AF4E0008AF4E0008AF4E0008AF4E00087C
:10007000AF4E0008AF4E0008AF4E0008AF4E00086C
:10008000AF4E0008AF4E0008AF4E0008AF4E00085C
:10009000AF4E0008AF4E0008AF4E0008AF4E00084C
:1000A000AF4E0008AF4E0008AF4E0008AF4E00083C
:1000B000AF4E0008AF4E0008AF4E0008AF4E00082C
:1000C000AF4E0008AF4E0008AF4E0008AF4E00081C
:1000D000AF4E0008094E0008AF4E0008AF4E0008B2
:1000E000AF4E0008AF4E0008AF4E0008AF4E0008FC
:1000F000AF4E0008AF4E0008AF4E0008AF4E0008EC
:10010000AF4E0008AF4E0008AF4E0008AF4E0008DB
:10011000AF4E0008AF4E0008AF4E0008AF4E0008CB
:10012000AF4E0008AF4E0008AF4E0008AF4E0008BB
:1001300000F002F800F06DF80AA090E8000C82448C
:100140008344AAF10107DA4501D100F062F8AFF269
:10015000090EBAE80F0013F0010F18BFFB1A43F0A5
:10016000010318472CA500004CA500000A444FF0DD
:10017000000C10F8013B13F0070408BF10F8014B06
:100180001D1108BF10F8015B641E05D010F8016B4B
:10019000641E01F8016BF9D113F0080F1EBF10F8AF
:1001A000014BAD1C0C1B09D16D1E58BF01F801CBD2
:1001B000FAD505E014F8016B01F8016B6D1EF9D555
:1001C0009142D6D37047000000230024002500266A
:1001D000103A28BF78C1FBD8520728BF30C148BFAA
:1001E0000B607047662908F0FA85642906F0708470
:1001F000782906F0A984002070471FB507F006F89B
:1002000004000020002107F087FDE0601FBD10B54D
:1002100010BD07F017F91146FFF7EFFF00F008F8DF
:1002200007F035F903B4FFF7F2FF03BC04F092FDC9
:10023000A4B014211EA806F03AFD002400BF00203F
:100240001A901B901C901D90FE4B0FCBCDE91823EC
:10025000CDE91601FB4B1033D3E90020D3E902139B
:10026000CDE91413CDE91220F64B20330FCBCDE9A5
:100270001023CDE90E0100BF00200D9000BF00BF8C
:100280000C9004F0FDFC4FF4A06004F023FE4FF44A
:10029000E13004F06DFD00F0DDFB01F0CFF800F07F
:1002A000FFFB0020022308220721009003F09CFEA0
:1002B0004FF47A7004F021FD04F0F2FA04F0C4FC6B
:1002C0004FF47A7004F019FDBFE2002000F011FC39
:1002D0008146B9F1030F15D1601C032190FBF1F2A7
:1002E00001FB1200C4B21CB9D7A006F0E5FB4BE03D
:1002F000012C03D1D6A006F0DFFB45E0D6A006F026
:10030000DBFB41E02021D64805F04BFA48451AD1E5
:100310001EA951F8240008F09DFA0746D14AD24B95
:1003200008F0AEF9054607F00DFD1EA941F82400BE
:1003300051F8240008F08EFA05462A460B46CBA059
:1003400006F0BAFB20E04FF40041CA4805F029FA54
:10035000484519D11EA951F8240008F07BFA05463A
:10036000C04AC14B07F020FD074607F0EBFC1EA971
:1003700041F8240051F8240008F06CFA05462A469A
:100380000B46BAA006F098FB0D98401CC0B20D9029
:100390000D9805287ED104F05AFBB7490860B7488C
:1003A000007C401E012101FA00F0B549098808408F
:1003B000002870D10C904FF0010A07E000201AA924
:1003C00041F82A000AF1010000F0FF0ABAF1030F18
:1003D000F4DD072004F04BFB8038AA4908600820B0
:1003E00004F045FBC0F17F00A7490860052004F038
:1003F0003EFB8038A5490860062004F038FBC0F1B8
:100400007F00A3490860A04A10689E4A116800292D
:1004100001DB0A4600E04A42002801DB034600E017
:1004200043429A4208DD97490868002801DB0146EB
:1004300000E041428B4607E093490868002801DB51
:10044000014600E041428B46BBF1000F04D100277A
:10045000B84600252E465EE08A49096849438A4A23
:100460001268894B1B6802FB031007F0FAFECDE906
:10047000000107F02BFCCDE904018248006807F079
:10048000F0FECDE90201DDE9042307F035FDCDE9F9
:10049000080101E0D6E186E1584607F0E2FECDE929
:1004A0000601DDE9082307F007FF0022794BCDE9BB
:1004B0000A0107F021FD0746884672490968494349
:1004C000714A1268704B1B6802FB031007F0C9FEEB
:1004D000CDE9000107F0FAFBCDE904016A480068A4
:1004E00007F0BFFECDE90201DDE9042307F004FDBA
:1004F000CDE90801584607F0B4FECDE90601DDE973
:10050000082307F0D9FE0022624BCDE90A0107F06B
:10051000F3FC05460E46139807F0A3FE3A46434601
:10052000CDE9040107F0C8FECDE908011B9807F0EA
:1005300098FECDE90601DDE9082307F035FCCDE999
:100540000A0107F031FE1B90149807F08AFE3A4624
:100550004346CDE9040107F0AFFECDE908011C9840
:1005600007F07FFECDE90601DDE9082307F01CFC5A
:10057000CDE90A0107F018FE1C90159807F071FEEE
:100580003A464346CDE9040107F096FECDE908015D
:100590001D9807F066FECDE90601DDE9082307F0A6
:1005A00003FCCDE90A0107F0FFFD1D90179807F045
:1005B00058FE2A463346CDE9040107F07DFECDE919
:1005C00008011B9807F04DFECDE90601DDE908237F
:1005D00007F0EAFBCDE90A0107F0E6FD1B90189849
:1005E00007F03FFE2A463346CDE9040107F064FEDA
:1005F000CDE908011C9807F034FECDE90601DDE9DC
:10060000082307F0D1FBCDE90A0107F0CDFD1C90CE
:10061000199807F026FE2A463346CDE9040107F073
:100620004BFECDE908011D9807F01BFECDE9060140
:10063000DDE9082307F0B8FBCDE90A0107F0B4FDB6
:100640001D9029E0E48D0008500D0A0D0A000000FD
:10065000490D0A0D0A000000440D0A0D0A000000B1
:10066000001001409A9999999999B93F25660D0A08
:100670000000000000080140100000209001002050
:100680008C01002000000020040000200800002051
:100690000C000020000069406C48007A401E0121D7
:1006A00001FA00F06A490988084058B917991B985F
:1006B00008441B9018991C9808441C9019991D987F
:1006C00008441D906148007B401E012101FA00F0A2
:1006D0005F490988084058B917991B98401A1B9020
:1006E00018991C98401A1C9019991D98401A1D9031
:1006F0005648807B401E012101FA00F054490988C8
:10070000084058B913991B98401A1B9014991C98CB
:10071000401A1C9015991D98401A1D904B48807ADC
:10072000401E012101FA00F049490988084058B9E2
:1007300013991B9808441B9014991C9808441C900A
:1007400015991D9808441D904048807D401E012148
:1007500001FA00F03E490988084058B90F991B98E2
:1007600008441B9010991C9808441C9011991D98DE
:1007700008441D903548007D401E012101FA00F01B
:1007800033490988084058B90F991B98401A1B90A3
:1007900010991C98401A1C9011991D98401A1D9090
:1007A0001AA803F003FD2948807C401E012101FAAC
:1007B00000F0274909880840F0BB2448007E401E0D
:1007C000012101FA00F022490988084028B94FF4B4
:1007D000C87100200C9A03F0E2FD1C48807E401E88
:1007E000012101FA00F01A490988084028B90021BE
:1007F0004FF4C8700C9A03F0D2FD1448007F401EDD
:10080000012101FA00F012490988084020B9114974
:1008100000200C9A03F0C3FD0C48807F401E01218C
:1008200001FA00F00A490988084020B90021094866
:100830000C9A03F0B4FD00E001E001200C900020D0
:100840000D9000BF012004F058FA3EE59001002011
:100850008C01002070FEFFFF704700BFFEE700BF65
:10086000FEE700BFFEE700BFFEE770477047704736
:10087000704700000CB50020019000906C480068A3
:1008800040F480306A49086000BF6948006800F49D
:10089000003000900198401C0190009818B9019810
:1008A000B0F5A06FF1D16248006800F4003010B1DB
:1008B0000120009001E0002000900098012843D121
:1008C0005C48006840F010005A490860084600681B
:1008D00020F0030008600846006840F0020008604D
:1008E0005348406852494860084640684860084696
:1008F000406840F4806048600846406820F47C10FE
:1009000048600846406840F4E810486008460068BF
:1009100040F08070086000BF4548006800F000703B
:100920000028F9D04248406820F003004049486060
:100930000846406840F00200486000BF3C484068FC
:1009400000F00C000828F9D10CBD10B5FFF792FF9C
:1009500010BD10B53648006840F001003449086009
:1009600008464068344908403149486008460068F4
:10097000324908402E4908600846006820F480206B
:1009800008600846406820F4FE0048604FF41F00ED
:100990008860FFF7DAFF4FF000602949086010BD5A
:1009A00010B5002100200022214B5B6803F00C01F0
:1009B00021B1042906D0082928D107E0214B224C77
:1009C000236027E01F4B204C236023E0184B5B681B
:1009D00003F47010164B5B6803F48032022303EBC0
:1009E000904022B9194B4343174C23600DE0104B44
:1009F0005B6803F4003323B1144B4343124C236070
:100A000003E0104B4343104C236003E00D4B0E4CAE
:100A1000236000BF00BF064B5B68C3F303130C4C9D
:100A2000E15C094B1B68CB40074C236010BD000004
:100A300000100240002002400000FFF8FFFFF6FE19
:100A400008ED00E000127A00C400002000093D001B
:100A5000C800002008B50121482005F0CBF820206F
:100A6000ADF8000010208DF8030003208DF802007F
:100A70006946094804F002FE2021074804F0ABFE55
:100A80002020ADF800006946044804F0F7FD20215D
:100A9000024804F0A0FE08BD000C0140001801400F
:100AA00008B50121142005F0A5F80121374804F00C
:100AB000B6FE4FF40040ADF8000048208DF803006A
:100AC0006946334804F0DAFD2020ADF800004820E4
:100AD0008DF8030069462F4804F0D0FD0120ADF8E1
:100AE000000028208DF803006946294804F0C6FD5F
:100AF00008BD10B5044614B10120274908702648E6
:100B0000007868B32021234804F04BFE58B14FF41D
:100B100000411F4804F045FE28B101211C4804F0A3
:100B200040FE01281CD10A2004F0E7F800201A49F1
:100B300008702021174804F034FE08B9012010BDC8
:100B40004FF40041124804F02CFE08B90220F6E7E9
:100B500001210F4804F025FE012815D10320EEE7FE
:100B600020210C4804F01DFE01280DD1C1030848C6
:100B700004F017FE012807D10121054804F011FEF9
:100B800010B90120044908700020D8E700023000A5
:100B90000008014000100140D8000020FE490880F4
:100BA0007047FD49891C0880704708B5FA48801CC9
:100BB00000880090BDF8000008BDF74A1080921C24
:100BC0001180704710B504462046FFF7E7FF052067
:100BD00004F06FF8FFF7E9FF10BDF0480089EE4917
:100BE00008807047EC49891C0880704730B5014681
:100BF00001F01F04C1F34513CA0AE50205EB4315D2
:100C00001544A8B230BD00BF011EA0F10102D0B250
:100C1000FAD1704700B502460B46E048808841F69D
:100C20006311884247D1DD488079A8B9DB48008844
:100C3000401E801A82B2D9494889FFF7AFFF0020D1
:100C4000FFF7AFFF0020FFF7ACFF1012FFF7A9FF7F
:100C5000D0B2FFF7A6FF16E0D0494889FFF79EFF04
:100C60001012FFF79EFFD0B2FFF79BFFCB49098818
:100C7000491EC1F30F20FFF794FFC8490978491EA8
:100C8000C8B2FFF78EFFC5498889FFF787FF1812A2
:100C9000FFF787FFD8B2FFF784FFC0494988491E94
:100CA000C1F30F20FFF77DFFBC498978491EC8B208
:100CB000FFF777FF3AE0B948808845F21051884243
:100CC00020D1B6494889FFF769FF1012FFF769FF85
:100CD000B2494989491C88B2FFF760FFD0B2FFF7DB
:100CE00060FFAE498889FFF759FF1812FFF759FFD7
:100CF000AA498989491C88B2FFF750FFD8B2FFF78B
:100D000050FF13E0A5494889FFF748FF1012FFF78D
:100D100048FFD0B2FFF745FFA0498889FFF73EFFA3
:100D20001812FFF73EFFD8B2FFF73BFF00BD2DE9D9
:100D3000F04105460E4699480088A84203DD9748D1
:100D40004088B04202DC0020BDE8F08131462846F0
:100D5000FFF760FF9148808845F21051884204D126
:100D60004FF43850FFF71AFF02E02E20FFF716FF6E
:100D7000FFF71BFF04468948808841F663118842CB
:100D800001D12046E0E7FFF710FF0446FFF70DFF13
:100D90008046E7B24FF6FF7000EA0727E012C00274
:100DA000B91240EA411040EAE820CDE700B57B489F
:100DB000808845F21051884204D14FF42450FFF747
:100DC000EDFE02E02920FFF7E9FE00BD00B5734803
:100DD000808845F21051884204D14FF42050FFF72B
:100DE000DDFE02E02820FFF7D9FE00BD70B5044605
:100DF0000023002669488079012805D1674880884A
:100E000041F66311884208D164488079F0B963489B
:100E1000808841F66311884218D1082C15D2DFE88A
:100E200004F00406080A0C0E101206240DE0072434
:100E30000BE0042409E0052407E0012405E0002478
:100E400003E0032401E0022400BF00BF082C1CD2F1
:100E5000DFE804F00406090C0F12151800BF14E0B7
:100E600043F0800311E043F040030EE043F0C00381
:100E70000BE043F0200308E043F0600305E043F09B
:100E8000A00302E043F0E00300BF00BF43488088B6
:100E900045F21051884202D14FF4585600E03626F0
:100EA0003E48808849F24131884205D03B488088DD
:100EB00047F28971884201D143F008031946304650
:100EC000FFF77BFE3548808841F6631188421DD0CC
:100ED00003F0200068B131480088304949888842D1
:100EE00014DA2E48058840882C4908800846458039
:100EF0000CE02A48008829494988884206DD2748AD
:100F00000588408825490880084645802348808810
:100F100045F21051884257D120494889FFF73EFEDB
:100F20000020FFF73EFE1D494989491C88B2FFF7A2
:100F300035FE0020FFF735FE18494989891C88B223
:100F4000FFF72CFE15490988491EC1F30F20FFF752
:100F500028FE12494989C91C88B2FFF71FFE0F49B4
:100F60000978491EC8B2FFF71CFE0C498889FFF7B3
:100F700015FE0020FFF715FE08498989491C88B233
:100F8000FFF70CFE0020FFF70CFE04498989891C3D
:100F900088B2FFF703FE03E0FE07006CD0010020DB
:100FA000FE494988491EC1F30F20FFF7FAFDFB49AE
:100FB0008989C91C88B2FFF7F1FDF8498978491E73
:100FC000C8B2FFF7EEFD2DE0F4494889FFF7E6FDD2
:100FD0000020FFF7E6FD0020FFF7E3FDEF49098859
:100FE000491EC1F30F20FFF7DCFDEC490978491ECB
:100FF000C8B2FFF7D6FDE9498889FFF7CFFD002089
:10100000FFF7CFFD0020FFF7CCFDE4494988491EDA
:10101000C1F30F20FFF7C5FDE0498978491EC8B22A
:10102000FFF7BFFD70BD30B504460D46294620468A
:10103000FFF7F0FDFFF7D1FDD9480088D9490880B6
:1010400030BD10B503460C46D448808845F2105197
:10105000884220D1D1494889FFF7A0FD1812FFF737
:10106000A0FDCE494989491C88B2FFF797FDD8B247
:10107000FFF797FDC9498889FFF790FD2012FFF718
:1010800090FDC6498989491C88B2FFF787FDE0B207
:10109000FFF787FD42E0C148808841F6631188422E
:1010A00028D1BE48807920B9BC480088401EC01AAB
:1010B00083B2BA494889FFF771FD1812FFF771FD35
:1010C000D8B2FFF76EFD1812FFF76BFDD8B2FFF72D
:1010D00068FDB2498889FFF761FD2012FFF761FDC5
:1010E000E0B2FFF75EFD2012FFF75BFDE0B2FFF715
:1010F00058FD13E0A9494889FFF750FD1812FFF782
:1011000050FDD8B2FFF74DFDA4498889FFF746FD91
:101110002012FFF746FDE0B2FFF743FD9F4800892C
:10112000A049891E0880881C028010BD2DE9F04767
:101130000446BE20FFF732FD0520FFF732FD2046B2
:1011400007F0A6F807464FF06632974B07F0B4F861
:10115000054607F059F81FFA80F94846FFF721FDC8
:101160000120FFF71EFDFF20FFF71BFD0020FFF70A
:1011700018FD0020FFF715FDBDE8F08710B5044607
:1011800086488471002C45D1F020844908804FF4B2
:10119000A07048800846808845F21051884210D1DE
:1011A0004FF430507D4908814FF4285048814FF466
:1011B0002C5088814FF4F07008804FF448704880BC
:1011C0001AE07648808841F6631188420DD12C20C0
:1011D000724908812B2048812A2088814FF4F070C1
:1011E00008804FF44870488006E02C206B49088145
:1011F0002A2048812B2088816848808845F2103158
:1012000088424CD14FF4A070644908804FF4F070CC
:10121000488044E04FF4A07060490880F020488086
:101220000846808845F21051884210D14FF4305062
:101230005A4908814FF4285048814FF42C50888136
:101240004FF4487008804FF4F07048801AE053481B
:10125000808841F6631188420DD12C204F490881C6
:101260002A2048812B2088814FF4487008804FF451
:10127000F070488006E02C20484908812A204881E7
:101280002B2088814548808845F21031884206D15C
:101290004FF4F070414908804FF4A070488000205E
:1012A000FFF7A4FD10BDF0B504460D46A018401E82
:1012B00086B2E818401E87B23848808841F663112C
:1012C000884231D13548807901282DD033480088B3
:1012D000801A001B84B2E818401E83B22F49488947
:1012E000FFF75CFC2012FFF75CFCE0B2FFF759FC53
:1012F000A118491EC1F30F20FFF753FCA118491E86
:10130000C8B2FFF74EFC25498889FFF747FC281231
:10131000FFF747FCE8B2FFF744FC1812FFF741FC67
:10132000D8B2FFF73EFC73E01C48808845F21051AC
:1013300088424DD119494889FFF730FC2012FFF748
:1013400030FC16494989491C88B2FFF727FCE0B2F6
:10135000FFF727FC11494989891C88B2FFF71EFC59
:101360003012FFF71EFC0D494989C91C88B2FFF7EE
:1013700015FCF0B2FFF715FC08498889FFF70EFC51
:101380002812FFF70EFC05498989491C88B2FFF72E
:1013900005FCE8B2FFF705FC004907E0D00100209A
:1013A000DA0000200008006C666604408989891C08
:1013B00088B2FFF7F3FB3812FFF7F3FBFE49898988
:1013C000C91C88B2FFF7EAFBF8B2FFF7EAFB1FE09F
:1013D000F9494889FFF7E2FB2012FFF7E2FBE0B290
:1013E000FFF7DFFB3012FFF7DCFBF0B2FFF7D9FBB2
:1013F000F1498889FFF7D2FB2812FFF7D2FBE8B248
:10140000FFF7CFFB3812FFF7CCFBF8B2FFF7C9FBB1
:10141000F0BD70B504460026E7480588408845437E
:1014200000210846FFF7F6FBFFF7D7FB00BF02E0FD
:10143000E2480480761CAE42FAD370BD00B59FB07E
:101440000121080204F0C9FB01214FF4B47004F03B
:10145000D1FB0120ADF8780010208DF87B0003202F
:101460008DF87A001EA9D64804F008F94CF23370C2
:10147000ADF8780018208DF87B0003208DF87A00F5
:101480001EA9D04804F0FAF84FF68070ADF8780045
:1014900018208DF87B0003208DF87A001EA9CA4819
:1014A00004F0ECF841F20100ADF8780018208DF856
:1014B0007B0003208DF87A001EA9C44804F0DEF8F2
:1014C00001200890002009900F200A9000200B9026
:1014D0000C900D900E90019002900320039000203C
:1014E000049005900690079006200F900020109021
:1014F00011901020129000201390159014901690C7
:1015000017904FF480501890002019904FF48040AD
:101510001A9000201B9008A81C9001A81D900FA8ED
:1015200003F092FD0121062003F0F6FE322003F0C5
:10153000E4FBD320FFF732FBFFF737FB9E4988809F
:10154000FFF733FB9C498880FFF72FFB9A4988807F
:10155000084680884FF6FF7101EA0020964988808E
:10156000FFF723FB944989880843934988800846FC
:10157000808849F2413188427DD00420FFF70EFB7C
:10158000FFF713FB8C498880FFF70FFB8A4988809F
:10159000FFF70BFB88498880084680884FF6FF716B
:1015A00001EA002084498880FFF7FFFA8249898890
:1015B0000843814988800846808848F25251884211
:1015C00003D147F289707C4988807B48808847F244
:1015D00089718842D0D0D420FFF7E0FAFFF7E5FA0E
:1015E00075498880FFF7E1FA73498880FFF7DDFAD3
:1015F00071498880084680884FF6FF7101EA002013
:101600006D498880FFF7D1FA6B49898808436A4998
:1016100088800846808845F21031884262D0552182
:101620004FF47040FFF7C9FAAA214FF20100FFF70B
:10163000C4FA52214FF20200FFF7BFFA08214FF21D
:101640000300FFF7BAFA01214FF20400FFF7B5FAE1
:101650004FF44540FFF7A2FAFFF7A7FA56498880F2
:10166000084680884FF6FF7101EA002052498880C1
:101670004CF2015000E035E0FFF790FAFFF795FAE1
:101680004D49898808434C498880052003F035FB83
:101690004948808845F21051884223D0A120FFF7A5
:1016A0007DFAFFF782FA44498880FFF77EFA4249C3
:1016B0008880084680884FF6FF7101EA00203E4985
:1016C0008880FFF772FA3C49898808433A49888044
:1016D0000846808845F26171884203D141F6631063
:1016E000354988803448818839A005F0E5F93248C9
:1016F000808849F24131884272D1CF20FFF74EFAFB
:101700000020FFF74EFAC120FFF74BFA3020FFF719
:1017100048FAED20FFF742FA6420FFF742FA03206F
:10172000FFF73FFA1220FFF73CFA8120FFF739FA62
:10173000E820FFF733FA8520FFF733FA1020FFF790
:1017400030FA7A20FFF72DFACB20FFF727FA39205D
:10175000FFF727FA2C20FFF724FA0020FFF721FAE1
:101760003420FFF71EFA0220FFF71BFAF720FFF7DD
:1017700015FA2020FFF715FAEA20FFF70FFA0020EC
:10178000FFF70FFA0020FFF70CFAC020FFF706FA68
:101790001B20FFF706FAC120FFF700FA0120FFF730
:1017A00000FAC520FFF7FAF93020FFF7FAF93020E8
:1017B000FFF7F7F9C72014E0D00100200008006C03
:1017C000000C0140001401400018014000200140BD
:1017D000204C43442049443A25780D0A000000007B
:1017E000B7E0FFF7DBF9B720FFF7DBF93620FFF7AB
:1017F000D5F94820FFF7D5F93A20FFF7CFF9552062
:10180000FFF7CFF9B120FFF7C9F90020FFF7C9F9B9
:101810001A20FFF7C6F9B620FFF7C0F90A20FFF734
:10182000C0F9A220FFF7BDF9F220FFF7B7F90020B9
:10183000FFF7B7F92620FFF7B1F90120FFF7B1F95B
:10184000E020FFF7ABF90F20FFF7ABF92A20FFF7F5
:10185000A8F92820FFF7A5F90820FFF7A2F90E2024
:10186000FFF79FF90820FFF79CF95420FFF799F93B
:10187000A920FFF796F94320FFF793F90A20FFF715
:1018800090F90F20FFF78DF90020FFF78AF900206B
:10189000FFF787F90020FFF784F90020FFF781F9AF
:1018A000E120FFF77BF90020FFF77BF91520FFF718
:1018B00078F91720FFF775F90720FFF772F9112063
:1018C000FFF76FF90620FFF76CF92B20FFF769F996
:1018D0005620FFF766F93C20FFF763F90520FFF774
:1018E00060F91020FFF75DF90F20FFF75AF93F204C
:1018F000FFF757F93F20FFF754F90F20FFF751F991
:101900002B20FFF74BF90020FFF74BF90020FFF7E2
:1019100048F90120FFF745F93F20FFF742F92A2057
:10192000FFF73CF90020FFF73CF90020FFF739F9F9
:101930000020FFF736F9EF20FFF733F91120FFF70A
:101940002DF9782003F0D9F92920FFF727F902F0C3
:10195000A6B8FE48808847F2897188427ED111205E
:10196000FFF71CF9782003F0C8F93620FFF716F9C5
:101970000020FFF716F93A20FFF710F90520FFF7CE
:1019800010F9B220FFF70AF90C20FFF70AF90C2032
:10199000FFF707F90020FFF704F93320FFF701F9FB
:1019A0003320FFF7FEF8B720FFF7F8F83520FFF7F0
:1019B000F8F8BB20FFF7F2F83220FFF7F2F8C0206A
:1019C000FFF7ECF80C20FFF7ECF8C220FFF7E6F881
:1019D0000120FFF7E6F8C320FFF7E0F81020FFF73B
:1019E000E0F8C420FFF7DAF82020FFF7DAF8C62085
:1019F000FFF7D4F80F20FFF7D4F8D020FFF7CEF888
:101A0000A420FFF7CEF8A120FFF7CBF8E020FFF7E6
:101A1000C5F8D020FFF7C5F80020FFF7C2F8022074
:101A2000FFF7BFF80720FFF7BCF80A20FFF7B9F867
:101A30002820FFF7B6F83220FFF7B3F84420FFF76D
:101A4000B0F84220FFF7ADF80620FFF7AAF80E2005
:101A5000FFF7A7F81220FFF7A4F800E054E01420E5
:101A6000FFF79FF81720FFF79CF8E120FFF796F8A3
:101A7000D020FFF796F80020FFF793F80220FFF739
:101A800090F80720FFF78DF80A20FFF78AF8282042
:101A9000FFF787F83120FFF784F85420FFF781F82B
:101AA0004720FFF77EF80E20FFF77BF81C20FFF79A
:101AB00078F81720FFF775F81B20FFF772F81E2043
:101AC000FFF76FF82A20FFF769F80020FFF769F8A1
:101AD0000020FFF766F80020FFF763F8EF20FFF71C
:101AE00060F82B20FFF75AF80020FFF75AF8002083
:101AF000FFF757F80120FFF754F83F20FFF751F8A0
:101B00002920FFF74BF822E79048808845F21031F2
:101B1000884240F07C87ED20FFF740F80120FFF776
:101B200040F8FE20FFF73DF8EE20FFF737F8DE2003
:101B3000FFF737F82120FFF734F8F120FFF72EF8F0
:101B40000120FFF72EF8DF20FFF728F81020FFF71D
:101B500028F8C420FFF722F88F20FFF722F8C620CC
:101B6000FFF71CF80020FFF71CF8E220FFF719F838
:101B7000E220FFF716F8E220FFF713F8BF20FFF787
:101B80000DF8AA20FFF70DF8B020FFF707F80D2099
:101B9000FFF707F80020FFF704F80D20FFF701F822
:101BA0000020FEF7FEFF1120FEF7FBFF0020FEF7EE
:101BB000F8FF1920FEF7F5FF0020FEF7F2FF2120C5
:101BC000FEF7EFFF0020FEF7ECFF2D20FEF7E9FF08
:101BD0000020FEF7E6FF3D20FEF7E3FF0020FEF7C2
:101BE000E0FF5D20FEF7DDFF0020FEF7DAFF5D205D
:101BF000FEF7D7FF0020FEF7D4FFB120FEF7CEFF9F
:101C00008020FEF7CEFF0020FEF7CBFF8B20FEF7F3
:101C1000C8FF0020FEF7C5FF9620FEF7C2FF002098
:101C2000FEF7BFFFB220FEF7B9FF0020FEF7B9FFB5
:101C30000020FEF7B6FF0220FEF7B3FF0020FEF7FC
:101C4000B0FF0320FEF7ADFF0020FEF7AAFFB32090
:101C5000FEF7A4FF0020FEF7A4FF0020FEF7A1FF7F
:101C60000020FEF79EFF0020FEF79BFF0020FEF7FE
:101C700098FF0020FEF795FF0020FEF792FF00205E
:101C8000FEF78FFF0020FEF78CFF0020FEF789FF94
:101C90000020FEF786FF0020FEF783FF0020FEF7FE
:101CA00080FF0020FEF77DFF0020FEF77AFF002076
:101CB000FEF777FF0020FEF774FF0020FEF771FFAC
:101CC0000020FEF76EFF0020FEF76BFF0020FEF7FE
:101CD00068FF0020FEF765FF0020FEF762FF00208E
:101CE000FEF75FFFB420FEF759FF8B20FEF759FF88
:101CF0000020FEF756FF9620FEF753FF0020FEF768
:101D000050FFA120FEF74DFF0020FEF74AFFB5204F
:101D1000FEF744FF0220FEF744FF0020FEF741FFDC
:101D20000320FEF73EFF0020FEF73BFF0420FEF7F6
:101D300038FF0020FEF735FFB620FEF72FFF00200A
:101D4000FEF72FFF0020FEF72CFF01E0D00100205E
:101D5000B720FEF723FF0020FEF723FF0020FEF749
:101D600020FF3F20FEF71DFF0020FEF71AFF5E2038
:101D7000FEF717FF0020FEF714FF6420FEF711FFA7
:101D80000020FEF70EFF8C20FEF70BFF0020FEF771
:101D900008FFAC20FEF705FF0020FEF702FFDC2065
:101DA000FEF7FFFE0020FEF7FCFE7020FEF7F9FEB6
:101DB0000020FEF7F6FE9020FEF7F3FE0020FEF76F
:101DC000F0FEEB20FEF7EDFE0020FEF7EAFEDC2041
:101DD000FEF7E7FE0020FEF7E4FEB820FEF7DEFE89
:101DE0000020FEF7DEFE0020FEF7DBFE0020FEF7FF
:101DF000D8FE0020FEF7D5FE0020FEF7D2FE002020
:101E0000FEF7CFFE0020FEF7CCFE0020FEF7C9FE55
:101E1000BA20FEF7C3FE2420FEF7C3FE0020FEF723
:101E2000C0FE0020FEF7BDFE0020FEF7BAFEC12076
:101E3000FEF7B4FE2020FEF7B4FE0020FEF7B1FE50
:101E40005420FEF7AEFE0020FEF7ABFEFF20FEF7AB
:101E5000A8FE0020FEF7A5FEC220FEF79FFE0A2086
:101E6000FEF79FFE0020FEF79CFE0420FEF799FE81
:101E70000020FEF796FEC320FEF790FE3C20FEF702
:101E800090FE0020FEF78DFE3A20FEF78AFE00202D
:101E9000FEF787FE3920FEF784FE0020FEF781FE64
:101EA0003720FEF77EFE0020FEF77BFE3C20FEF78B
:101EB00078FE0020FEF775FE3620FEF772FE002049
:101EC000FEF76FFE3220FEF76CFE0020FEF769FE83
:101ED0002F20FEF766FE0020FEF763FE2C20FEF7A3
:101EE00060FE0020FEF75DFE2920FEF75AFE00206E
:101EF000FEF757FE2620FEF754FE0020FEF751FEA7
:101F00002420FEF74EFE0020FEF74BFE2420FEF7B5
:101F100048FE0020FEF745FE2320FEF742FE00208B
:101F2000FEF73FFE3C20FEF73CFE0020FEF739FEA8
:101F30003620FEF736FE0020FEF733FE3220FEF795
:101F400030FE0020FEF72DFE2F20FEF72AFE002097
:101F5000FEF727FE2C20FEF724FE0020FEF721FED0
:101F60002920FEF71EFE0020FEF71BFE2620FEF7AE
:101F700018FE0020FEF715FE2420FEF712FE0020BA
:101F8000FEF70FFE2420FEF70CFE0020FEF709FEF0
:101F90002320FEF706FE0020FEF703FEC420FEF716
:101FA000FDFD6220FEF7FDFD0020FEF7FAFD052095
:101FB000FEF7F7FD0020FEF7F4FD8420FEF7F1FDAB
:101FC0000020FEF7EEFDF020FEF7EBFD0020FEF70F
:101FD000E8FD1820FEF7E5FD0020FEF7E2FDA42055
:101FE000FEF7DFFD0020FEF7DCFD1820FEF7D9FD2F
:101FF0000020FEF7D6FD5020FEF7D3FD0020FEF7AF
:10200000D0FD0C20FEF7CDFD0020FEF7CAFD172005
:10201000FEF7C7FD0020FEF7C4FD9520FEF7C1FDC9
:102020000020FEF7BEFDF320FEF7BBFD0020FEF70B
:10203000B8FDE620FEF7B5FD0020FEF7B2FDC52095
:10204000FEF7ACFD3220FEF7ACFD0020FEF7A9FD47
:102050004420FEF7A6FD0020FEF7A3FD6520FEF755
:10206000A0FD0020FEF79DFD7620FEF79AFD0020E2
:10207000FEF797FD8820FEF794FD0020FEF791FD06
:10208000C620FEF78BFD2020FEF78BFD0020FEF71B
:1020900088FD1720FEF785FD0020FEF782FD012058
:1020A000FEF77FFD0020FEF77CFDC720FEF776FDE2
:1020B0000020FEF776FD0020FEF773FD0020FEF7FE
:1020C00070FD0020FEF76DFDC820FEF767FD0020C3
:1020D000FEF767FD0020FEF764FD0020FEF761FDBE
:1020E0000020FEF75EFDC920FEF758FD0020FEF738
:1020F00058FD0020FEF755FD0020FEF752FD0020A0
:10210000FEF74FFD0020FEF74CFD0020FEF749FDD5
:102110000020FEF746FD0020FEF743FD0020FEF7FD
:1021200040FD0020FEF73DFD0020FEF73AFD0020B7
:10213000FEF737FD0020FEF734FD0020FEF731FDED
:102140000020FEF72EFD0020FEF72BFDE020FEF71D
:1021500025FD1620FEF725FD0020FEF722FD1C20A0
:10216000FEF71FFD0020FEF71CFD2120FEF719FDE4
:102170000020FEF716FD3620FEF713FD0020FEF7C7
:1021800010FD4620FEF70DFD0020FEF70AFD52204F
:10219000FEF707FD0020FEF704FD6420FEF701FDB9
:1021A0000020FEF7FEFC7A20FEF7FBFC0020FEF785
:1021B000F8FC8B20FEF7F5FC0020FEF7F2FC9920DE
:1021C000FEF7EFFC0020FEF7ECFCA820FEF7E9FC90
:1021D0000020FEF7E6FCB920FEF7E3FC0020FEF746
:1021E000E0FCC420FEF7DDFC0020FEF7DAFCCA208C
:1021F000FEF7D7FC0020FEF7D4FCD220FEF7D1FC7E
:102200000020FEF7CEFCD920FEF7CBFC0020FEF725
:10221000C8FCE020FEF7C5FC0020FEF7C2FCF3205E
:10222000FEF7BFFC0020FEF7BCFCE120FEF7B6FC89
:102230001620FEF7B6FC0020FEF7B3FC1C20FEF7CC
:10224000B0FC0020FEF7ADFC2220FEF7AAFC002027
:10225000FEF7A7FC3620FEF7A4FC0020FEF7A1FC49
:102260004520FEF79EFC0020FEF79BFC5220FEF767
:1022700098FC0020FEF795FC6420FEF792FC0020FD
:10228000FEF78FFC7A20FEF78CFC0020FEF789FC1D
:102290008B20FEF786FC0020FEF783FC9920FEF7DA
:1022A00080FC0020FEF77DFCA820FEF77AFC0020D1
:1022B000FEF777FCB920FEF774FC0020FEF771FCF6
:1022C000C420FEF76EFC0020FEF76BFCCA20FEF770
:1022D00068FC0020FEF765FCD220FEF762FC0020BF
:1022E000FEF75FFCD820FEF75CFC0020FEF759FCEF
:1022F000E020FEF756FC0020FEF753FCF320FEF72B
:1023000050FC0020FEF74DFCE220FEF747FC0520C4
:10231000FEF747FC0020FEF744FC0B20FEF741FCD3
:102320000020FEF73EFC1B20FEF73BFC0020FEF7E2
:1023300038FC3420FEF735FC0020FEF732FC442048
:10234000FEF72FFC0020FEF72CFC4F20FEF729FCA7
:102350000020FEF726FC6120FEF723FC0020FEF79C
:1023600020FC7920FEF71DFC0020FEF71AFC8820D7
:10237000FEF717FC0020FEF714FC9720FEF711FC77
:102380000020FEF70EFCA620FEF70BFC0020FEF757
:1023900008FCB720FEF705FC0020FEF702FCC22077
:1023A000FEF7FFFB0020FEF7FCFBC720FEF7F9FB62
:1023B0000020FEF7F6FBD120FEF7F3FB0020FEF72E
:1023C000F0FBD620FEF7EDFB0020FEF7EAFBDD2058
:1023D000FEF7E7FB0020FEF7E4FBF320FEF7E1FB4E
:1023E0000020FEF7DEFBE320FEF7D8FB0520FEF71A
:1023F000D8FB0020FEF7D5FB0A20FEF7D2FB002019
:10240000FEF7CFFB1C20FEF7CCFB0020FEF7C9FB3C
:102410003320FEF7C6FB0020FEF7C3FB4420FEF787
:10242000C0FB0020FEF7BDFB5020FEF7BAFB0020EA
:10243000FEF7B7FB6220FEF7B4FB0020FEF7B1FB0E
:102440007820FEF7AEFB0020FEF7ABFB8820FEF7FE
:10245000A8FB0020FEF7A5FB9720FEF7A2FB0020BB
:10246000FEF79FFBA620FEF79CFB0020FEF799FBE2
:10247000B720FEF796FB0020FEF793FBC220FEF785
:1024800090FB0020FEF78DFBC720FEF78AFB0020A3
:10249000FEF787FBD120FEF784FB0020FEF781FBCF
:1024A000D520FEF77EFB0020FEF77BFBDD20FEF74C
:1024B00078FB0020FEF775FBF320FEF772FB00208F
:1024C000FEF76FFBE420FEF769FB0120FEF769FBD6
:1024D0000020FEF766FB0120FEF763FB0020FEF7FD
:1024E00060FB0220FEF75DFB0020FEF75AFB2A206E
:1024F000FEF757FB0020FEF754FB3C20FEF751FB94
:102500000020FEF74EFB4B20FEF74BFB0020FEF7B2
:1025100048FB5D20FEF745FB0020FEF742FB7420E0
:10252000FEF73FFB0020FEF73CFB8420FEF739FB63
:102530000020FEF736FB9320FEF733FB0020FEF76A
:1025400030FBA220FEF72DFB0020FEF72AFBB32074
:10255000FEF727FB0020FEF724FBBE20FEF721FB41
:102560000020FEF71EFBC420FEF71BFB0020FEF739
:1025700018FBCD20FEF715FB0020FEF712FBD32041
:10258000FEF70FFB0020FEF70CFBDD20FEF709FB3A
:102590000020FEF706FBF320FEF703FB0020FEF70A
:1025A00000FBE520FEF7FAFA0020FEF7FAFA002019
:1025B000FEF7F7FA0020FEF7F4FA0020FEF7F1FA32
:1025C0000220FEF7EEFA0020FEF7EBFA2920FEF7D4
:1025D000E8FA0020FEF7E5FA3C20FEF7E2FA0020D8
:1025E000FEF7DFFA4B20FEF7DCFA0020FEF7D9FAFF
:1025F0005D20FEF7D6FA0020FEF7D3FA7420FEF72E
:10260000D0FA0020FEF7CDFA8420FEF7CAFA0020A7
:10261000FEF7C7FA9320FEF7C4FA0020FEF7C1FACE
:10262000A220FEF7BEFA0020FEF7BBFAB320FEF7A9
:10263000B8FA0020FEF7B5FABE20FEF7B2FA002085
:10264000FEF7AFFAC420FEF7ACFA0020FEF7A9FAB5
:10265000CD20FEF7A6FA0020FEF7A3FAD320FEF75E
:10266000A0FA0020FEF79DFADC20FEF79AFA00207F
:10267000FEF797FAF320FEF794FA0020FEF791FA9E
:10268000E620FEF78BFA1120FEF78BFA0020FEF70A
:1026900088FA3420FEF785FA0020FEF782FA5620E9
:1026A000FEF77FFA0020FEF77CFA7620FEF779FA33
:1026B0000020FEF776FA7720FEF773FA0020FEF787
:1026C00070FA6620FEF76DFA0020FEF76AFA88209D
:1026D000FEF767FA0020FEF764FA9920FEF761FA28
:1026E0000020FEF75EFABB20FEF75BFA0020FEF743
:1026F00058FA9920FEF755FA0020FEF752FA6620A4
:10270000FEF74FFA0020FEF74CFA5520FEF749FA83
:102710000020FEF746FA5520FEF743FA0020FEF7A8
:1027200040FA4520FEF73DFA0020FEF73AFA432032
:10273000FEF737FA0020FEF734FA4420FEF731FAAC
:102740000020FEF72EFAE720FEF728FA3220FEF7E7
:1027500028FA0020FEF725FA5520FEF722FA00207D
:10276000FEF71FFA7620FEF71CFA0020FEF719FA92
:102770006620FEF716FA0020FEF713FA6720FEF730
:1027800010FA0020FEF70DFA6720FEF70AFA002083
:10279000FEF707FA8720FEF704FA0020FEF701FA99
:1027A0009920FEF7FEF90020FEF7FBF9BB20FEF7AB
:1027B000F8F90020FEF7F5F99920FEF7F2F900206C
:1027C000FEF7EFF97720FEF7ECF90020FEF7E9F9C4
:1027D0004420FEF7E6F90020FEF7E3F95620FEF765
:1027E000E0F90020FEF7DDF92320FEF7DAF90020FA
:1027F000FEF7D7F93320FEF7D4F90020FEF7D1F920
:102800004520FEF7CEF90020FEF7CBF9E820FEF7D1
:10281000C5F90020FEF7C5F90020FEF7C2F999209E
:10282000FEF7BFF90020FEF7BCF98720FEF7B9F9E3
:102830000020FEF7B6F98820FEF7B3F90020FEF776
:10284000B0F97720FEF7ADF90020FEF7AAF966206F
:10285000FEF7A7F90020FEF7A4F98820FEF7A1F9FA
:102860000020FEF79EF9AA20FEF79BF90020FEF754
:1028700098F9BB20FEF795F90020FEF792F9992010
:10288000FEF78FF90020FEF78CF96620FEF789F934
:102890000020FEF786F95520FEF783F90020FEF7A9
:1028A00080F95520FEF77DF90020FEF77AF94420E3
:1028B000FEF777F90020FEF774F94420FEF771F96E
:1028C0000020FEF76EF95520FEF76BF90020FEF7A9
:1028D00068F9E920FEF762F9AA20FEF762F9002004
:1028E000FEF75FF90020FEF75CF90020FEF759F9CA
:1028F0000020FEF753F9AA20FEF753F9CF20FEF788
:102900004DF90020FEF74DF90020FEF74AF90020AE
:10291000FEF747F90020FEF744F90020FEF741F9E1
:102920000020FEF73EF90020FEF73BF90020FEF7FD
:1029300038F90020FEF735F90020FEF732F90020C3
:10294000FEF72FF90020FEF72CF90020FEF729F9F9
:102950000020FEF726F90020FEF723F90020FEF7FD
:1029600020F90020FEF71DF9F020FEF717F90020EE
:10297000FEF717F95020FEF714F90020FEF711F9C1
:102980000020FEF70EF90020FEF70BF9F320FEF70A
:1029900005F90020FEF705F9F920FEF7FFF80620FB
:1029A000FEF7FFF81020FEF7FCF82920FEF7F9F8F3
:1029B0000020FEF7F6F83A20FEF7F0F85520FEF773
:1029C000F0F81120FEF7EAF8642002F096F92920C9
:1029D000FEF7E4F83520FEF7E1F80020FEF7E1F815
:1029E0005120FEF7DBF8FF20FEF7DBF85320FEF75F
:1029F000D5F82C20FEF7D5F85520FEF7CFF8822029
:102A0000FEF7CFF82C20FEF7C9F801F048B8FE48D1
:102A1000808845F2105188427ED155214FF4704094
:102A2000FEF7CBF8AA214FF20100FEF7C6F85221BB
:102A30004FF20200FEF7C1F808214FF20300FEF743
:102A4000BCF801214FF20400FEF7B7F80D214FF456
:102A50003040FEF7B2F80D214BF20100FEF7ADF861
:102A60000D214BF20200FEF7A8F834214FF4364056
:102A7000FEF7A3F834214BF20160FEF79EF83421F3
:102A80004BF20260FEF799F80D214FF43140FEF74A
:102A900094F80D214BF20110FEF78FF80D214BF247
:102AA0000210FEF78AF834214FF43740FEF785F81C
:102AB00034214BF20170FEF780F834214BF20270A2
:102AC000FEF77BF800214FF43240FEF776F8002144
:102AD0004BF20120FEF771F800214BF20220FEF7C5
:102AE0006CF824214FF43840FEF767F824214BF6A8
:102AF0000100FEF762F824214BF60200FEF75DF8B4
:102B000001214FF43F40FEF758F80F214FF43340B6
:102B1000FEF753F80F2100E0FEE34BF20130FEF721
:102B20004CF80F214BF20230FEF747F834214FF4F6
:102B30003940FEF742F834214BF60110FEF73DF81C
:102B400034214BF60210FEF738F808214FF43540D7
:102B5000FEF733F808214BF20150FEF72EF808215A
:102B60004BF20250FEF729F803214FF44240FEF7E2
:102B700024F824214FF43A40FEF71FF824214BF6A5
:102B80000120FEF71AF824214BF60220FEF715F873
:102B900000214FF43C40FEF710F878214BF601403D
:102BA000FEF70BF800214BF60240FEF706F8002175
:102BB0004FF43D40FEF701F878214BF60150FDF748
:102BC000FCFF00214BF60250FDF7F7FF00214FF408
:102BD0003E40FDF7F2FF64214BF60160FDF7EDFF8B
:102BE00000214FF45140FDF7E8FF33214DF2011071
:102BF000FDF7E3FF00214DF20210FDF7DEFF342167
:102C00004DF20310FDF7D9FF00214DF20410FDF73E
:102C1000D4FF3A214DF20510FDF7CFFF00214DF210
:102C20000610FDF7CAFF4A214DF20710FDF7C5FF58
:102C300000214DF20810FDF7C0FF5C214DF2091094
:102C4000FDF7BBFF00214DF20A10FDF7B6FF812111
:102C50004DF20B10FDF7B1FF00214DF20C10FDF706
:102C6000ACFFA6214DF20D10FDF7A7FF00214DF29C
:102C70000E10FDF7A2FFE5214DF20F10FDF79DFFAD
:102C800001214DF21010FDF798FF13214DF21110A4
:102C9000FDF793FF01214DF21210FDF78EFF542135
:102CA0004DF21310FDF789FF01214DF21410FDF7CD
:102CB00084FF82214DF21510FDF77FFF01214DF2B7
:102CC0001610FDF77AFFCA214DF21710FDF775FFB8
:102CD00002214DF21810FDF770FF00214DF219107E
:102CE000FDF76BFF02214DF21A10FDF766FF01217F
:102CF0004DF21B10FDF761FF02214DF21C10FDF794
:102D00005CFF34214DF21D10FDF757FF02214DF2FB
:102D10001E10FDF752FF67214DF21F10FDF74DFF0A
:102D200002214DF22010FDF748FF84214DF22110C1
:102D3000FDF743FF02214DF22210FDF73EFFA421D3
:102D40004DF22310FDF739FF02214DF22410FDF75B
:102D500034FFB7214DF22510FDF72FFF02214DF270
:102D60002610FDF72AFFCF214DF22710FDF725FF92
:102D700002214DF22810FDF720FFDE214DF229102F
:102D8000FDF71BFF02214DF22A10FDF716FFF2217D
:102D90004DF22B10FDF711FF02214DF22C10FDF723
:102DA0000CFFFE214DF22D10FDF707FF03214DF220
:102DB0002E10FDF702FF10214DF22F10FDF7FDFE42
:102DC00003214DF23010FDF7F8FE33214DF23110A2
:102DD000FDF7F3FE03214DF23210FDF7EEFE6D21FB
:102DE0004DF23310FDF7E9FE00214FF45240FDF79C
:102DF000E4FE33214DF20120FDF7DFFE00214DF20C
:102E00000220FDF7DAFE01E0D001002034214DF26E
:102E10000320FDF7D2FE00214DF20420FDF7CDFE88
:102E20003A214DF20520FDF7C8FE00214DF20620A3
:102E3000FDF7C3FE4A214DF20720FDF7BEFE00213B
:102E40004DF20820FDF7B9FE5C214DF20920FDF797
:102E5000B4FE00214DF20A20FDF7AFFE81214DF2B4
:102E60000B20FDF7AAFE00214DF20C20FDF7A5FE78
:102E7000A6214DF20D20FDF7A0FE00214DF20E20FF
:102E8000FDF79BFEE5214DF20F20FDF796FE012197
:102E90004DF21020FDF791FE13214DF21120FDF7A8
:102EA0008CFE01214DF21220FDF787FE54214DF2D8
:102EB0001320FDF782FE01214DF21420FDF77DFE67
:102EC00082214DF21520FDF778FE01214DF21620EA
:102ED000FDF773FECA214DF21720FDF76EFE0221A9
:102EE0004DF21820FDF769FE00214DF21920FDF783
:102EF00064FE02214DF21A20FDF75FFE01214DF222
:102F00001B20FDF75AFE02214DF21C20FDF755FE55
:102F100034214DF21D20FDF750FE02214DF21E20FE
:102F2000FDF74BFE67214DF21F20FDF746FE022103
:102F30004DF22020FDF741FE84214DF22120FDF7C6
:102F40003CFE02214DF22220FDF737FEA4214DF276
:102F50002320FDF732FE02214DF22420FDF72DFE45
:102F6000B7214DF22520FDF728FE02214DF2262043
:102F7000FDF723FECF214DF22720FDF71EFE022193
:102F80004DF22820FDF719FEDE214DF22920FDF734
:102F900014FE02214DF22A20FDF70FFEF2214DF220
:102FA0002B20FDF70AFE02214DF22C20FDF705FE35
:102FB000FE214DF22D20FDF700FE03214DF22E20C3
:102FC000FDF7FBFD10214DF22F20FDF7F6FD03214B
:102FD0004DF23020FDF7F1FD33214DF23120FDF7A8
:102FE000ECFD03214DF23220FDF7E7FD6D214DF29E
:102FF0003320FDF7E2FD00214FF45340FDF7DDFDE6
:1030000033214DF20130FDF7D8FD00214DF20230A1
:10301000FDF7D3FD34214DF20330FDF7CEFD002145
:103020004DF20430FDF7C9FD3A214DF20530FDF7B0
:10303000C4FD00214DF20630FDF7BFFD4A214DF2DF
:103040000730FDF7BAFD00214DF20830FDF7B5FD60
:103050005C214DF20930FDF7B0FD00214DF20A3040
:10306000FDF7ABFD81214DF20B30FDF7A6FD0021F0
:103070004DF20C30FDF7A1FDA6214DF20D30FDF70C
:103080009CFD00214DF20E30FDF797FDE5214DF23C
:103090000F30FDF792FD01214DF21030FDF78DFD4F
:1030A00013214DF21130FDF788FD01214DF2123050
:1030B000FDF783FD54214DF21330FDF77EFD012114
:1030C0004DF21430FDF779FD82214DF21530FDF7F8
:1030D00074FD01214DF21630FDF76FFDCA214DF24E
:1030E0001730FDF76AFD02214DF21830FDF765FD3E
:1030F00000214DF21930FDF760FD02214DF21A302A
:10310000FDF75BFD01214DF21B30FDF756FD02215D
:103110004DF21C30FDF751FD34214DF21D30FDF70D
:103120004CFD02214DF21E30FDF747FD67214DF2A7
:103130001F30FDF742FD02214DF22030FDF73DFD2D
:1031400084214DF22130FDF738FD02214DF222306D
:10315000FDF733FDA4214DF22330FDF72EFD0221B2
:103160004DF22430FDF729FDB7214DF22530FDF752
:1031700024FD02214DF22630FDF71FFDCF214DF237
:103180002730FDF71AFD02214DF22830FDF715FD1D
:10319000DE214DF22930FDF710FD02214DF22A30DB
:1031A000FDF70BFDF2214DF22B30FDF706FD02215C
:1031B0004DF22C30FDF701FDFE214DF22D30FDF7D3
:1031C000FCFC03214DF22E30FDF7F7FC10214DF2EF
:1031D0002F30FDF7F2FC03214DF23030FDF7EDFC0E
:1031E00033214DF23130FDF7E8FC03214DF232304E
:1031F000FDF7E3FC6D214DF23330FDF7DEFC0021DD
:103200004FF45440FDF7D9FC33214DF20140FDF756
:10321000D4FC00214DF20240FDF7CFFC34214DF2E9
:103220000340FDF7CAFC00214DF20440FDF7C5FC48
:103230003A214DF20540FDF7C0FC00214DF2064059
:10324000FDF7BBFC4A214DF20740FDF7B6FC00211B
:103250004DF20840FDF7B1FC5C214DF20940FDF74D
:10326000ACFC00214DF20A40FDF7A7FC81214DF294
:103270000B40FDF7A2FC00214DF20C40FDF79DFC38
:10328000A6214DF20D40FDF798FC00214DF20E40B5
:10329000FDF793FCE5214DF20F40FDF78EFC012177
:1032A0004DF21040FDF789FC13214DF21140FDF75E
:1032B00084FC01214DF21240FDF77FFC54214DF2B8
:1032C0001340FDF77AFC01214DF21440FDF775FC27
:1032D00082214DF21540FDF770FC01214DF21640A0
:1032E000FDF76BFCCA214DF21740FDF766FC022189
:1032F0004DF21840FDF761FC00214DF21940FDF739
:103300005CFC02214DF21A40FDF757FC01214DF201
:103310001B40FDF752FC00E003E302214DF21C408C
:10332000FDF74BFC34214DF21D40FDF746FC022118
:103330004DF21E40FDF741FC67214DF21F40FDF7A5
:103340003CFC02214DF22040FDF737FC84214DF278
:103350002140FDF732FC02214DF22240FDF72DFC09
:10336000A4214DF22340FDF728FC02214DF2244018
:10337000FDF723FCB7214DF22540FDF71EFC02218D
:103380004DF22640FDF719FCCF214DF22740FDF705
:1033900014FC02214DF22840FDF70FFCDE214DF216
:1033A0002940FDF70AFC02214DF22A40FDF705FCF9
:1033B000F2214DF22B40FDF700FC02214DF22C4092
:1033C000FDF7FBFBFE214DF22D40FDF7F6FB03213F
:1033D0004DF22E40FDF7F1FB10214DF22F40FDF78D
:1033E000ECFB03214DF23040FDF7E7FB33214DF2BA
:1033F0003140FDF7E2FB03214DF23240FDF7DDFBEA
:103400006D214DF23340FDF7D8FB00214FF45540BC
:10341000FDF7D3FB33214DF20150FDF7CEFB002128
:103420004DF20250FDF7C9FB34214DF20350FDF778
:10343000C4FB00214DF20450FDF7BFFB3A214DF2D1
:103440000550FDF7BAFB00214DF20650FDF7B5FB24
:103450004A214DF20750FDF7B0FB00214DF2085014
:10346000FDF7ABFB5C214DF20950FDF7A6FB0021F7
:103470004DF20A50FDF7A1FB81214DF20B50FDF7F3
:103480009CFB00214DF20C50FDF797FBA6214DF25D
:103490000D50FDF792FB00214DF20E50FDF78DFB14
:1034A000E5214DF20F50FDF788FB01214DF2105040
:1034B000FDF783FB13214DF21150FDF77EFB012137
:1034C0004DF21250FDF779FB54214DF21350FDF7E8
:1034D00074FB01214DF21450FDF76FFB82214DF278
:1034E0001550FDF76AFB01214DF21650FDF765FB03
:1034F000CA214DF21750FDF760FB02214DF2185022
:10350000FDF75BFB00214DF21950FDF756FB022140
:103510004DF21A50FDF751FB01214DF21B50FDF702
:103520004CFB02214DF21C50FDF747FB34214DF2BC
:103530001D50FDF742FB02214DF21E50FDF73DFBF1
:1035400067214DF21F50FDF738FB02214DF220504C
:10355000FDF733FB84214DF22150FDF72EFB0221B4
:103560004DF22250FDF729FBA4214DF22350FDF727
:1035700024FB02214DF22450FDF71FFBB7214DF231
:103580002550FDF71AFB02214DF22650FDF715FBE1
:10359000CF214DF22750FDF710FB02214DF22850AC
:1035A000FDF70BFBDE214DF22950FDF706FB022152
:1035B0004DF22A50FDF701FBF2214DF22B50FDF7A1
:1035C000FCFA02214DF22C50FDF7F7FAFE214DF2E4
:1035D0002D50FDF7F2FA03214DF22E50FDF7EDFAD2
:1035E00010214DF22F50FDF7E8FA03214DF2305033
:1035F000FDF7E3FA33214DF23150FDF7DEFA0321F6
:103600004DF23250FDF7D9FA6D214DF23350FDF7EE
:10361000D4FA00214FF45640FDF7CFFA33214DF292
:103620000160FDF7CAFA00214DF20260FDF7C5FA0C
:1036300034214DF20360FDF7C0FA00214DF2046021
:10364000FDF7BBFA3A214DF20560FDF7B6FA00210D
:103650004DF20660FDF7B1FA4A214DF20760FDF721
:10366000ACFA00214DF20860FDF7A7FA5C214DF29B
:103670000960FDF7A2FA00214DF20A60FDF79DFAFC
:1036800081214DF20B60FDF798FA00214DF20C609C
:10369000FDF793FAA6214DF20D60FDF78EFA002199
:1036A0004DF20E60FDF789FAE5214DF20F60FDF74E
:1036B00084FA01214DF21060FDF77FFA13214DF2DB
:1036C0001160FDF77AFA01214DF21260FDF775FAEB
:1036D00054214DF21360FDF770FA01214DF2146090
:1036E000FDF76BFA82214DF21560FDF766FA0121B4
:1036F0004DF21660FDF761FACA214DF21760FDF731
:103700005CFA02214DF21860FDF757FA00214DF2E4
:103710001960FDF752FA02214DF21A60FDF74DFAD9
:1037200001214DF21B60FDF748FA02214DF21C60A9
:10373000FDF743FA34214DF21D60FDF73EFA0221F8
:103740004DF21E60FDF739FA67214DF21F60FDF75B
:1037500034FA02214DF22060FDF72FFA84214DF258
:103760002160FDF72AFA02214DF22260FDF725FAC9
:10377000A4214DF22360FDF720FA02214DF22460CE
:10378000FDF71BFAB7214DF22560FDF716FA02216D
:103790004DF22660FDF711FACF214DF22760FDF7BB
:1037A0000CFA02214DF22860FDF707FADE214DF2F6
:1037B0002960FDF702FA02214DF22A60FDF7FDF9BA
:1037C000F2214DF22B60FDF7F8F902214DF22C6049
:1037D000FDF7F3F9FE214DF22D60FDF7EEF903211F
:1037E0004DF22E60FDF7E9F910214DF22F60FDF743
:1037F000E4F903214DF23060FDF7DFF933214DF29A
:103800003160FDF7DAF903214DF23260FDF7D5F9A9
:103810006D214DF23360FDF7D0F955214FF4704022
:10382000FDF7CBF9AA214FF20100FDF7C6F95221AD
:103830004FF20200FDF7C1F908214FF20300FDF736
:10384000BCF900214FF20400FDF7B7F9CC214FF489
:103850003140FDF7B2F900214BF20110FDF7ADF94F
:1038600005214FF43640FDF7A8F970214FF4374099
:10387000FDF7A3F970214BF20170FDF79EF90121CC
:103880004FF43840FDF799F903214BF60100FDF79D
:1038900094F903214BF60200FDF78FF903214BF653
:1038A0000300FDF78AF902214FF43C40FDF785F94A
:1038B00000214BF60140FDF780F900214BF6024054
:1038C000FDF77BF9D0214FF44940FDF776F902214D
:1038D0004CF60110FDF771F950214CF60210FDF77E
:1038E0006CF950214CF60310FDF767F950214CF6A6
:1038F0000410FDF762F900214FF45450FDF75DF913
:1039000055214FF46850FDF758F94FF48850FDF7F2
:1039100045F9782001F0CDF94FF42450FDF73EF938
:10392000BDE0FE48808841F663118842F8D1E2206C
:10393000FDF734F91D20FDF734F90220FDF731F9C8
:103940000420FDF72EF9642001F0B3F9E020FDF723
:1039500025F90120FDF725F90A2001F0CEF9E02034
:10396000FDF71CF90320FDF71CF90C2001F0C5F947
:103970000120FDF713F90A2001F0BFF9E620FDF759
:103980000DF92F20FDF70DF9FF20FDF70AF9FF20B3
:10399000FDF707F9B020FDF701F92020FDF701F947
:1039A0000020FDF7FEF80320FDF7FBF840F21F3082
:1039B000FDF7F7F80120FDF7F4F840F2DF10FDF70E
:1039C000F0F80020FDF7EDF8B420FDF7E7F804204B
:1039D000FDF7E7F840F21F40FDF7E3F80020FDF7A0
:1039E000E0F82E20FDF7DDF80020FDF7DAF80020E2
:1039F000FDF7D7F80020FDF7D4F80020FDF7D1F847
:103A0000B620FDF7CBF80220FDF7CBF84FF403709A
:103A1000FDF7C7F80020FDF7C4F81720FDF7C1F83F
:103A20001520FDF7BEF80020FDF7BBF80020FDF7DC
:103A3000B8F8F020FDF7B2F80320FDF7B2F829201E
:103A4000FDF7ACF8D020FDF7A9F80020FDF7A9F8A4
:103A5000BE20FDF7A3F80520FDF7A3F8FE20FDF733
:103A6000A0F80120FDF79DF80020FDF79AF800204E
:103A7000FDF797F80020FDF794F8B820FDF78EF8D1
:103A80000320FDF78EF80120FDF78BF8BA20FDF733
:103A900085F80120FDF785F86420FDF747FB00203D
:103AA000FDF76CFB01209E4908604FF6FF70FDF7A3
:103AB000B0FC1FB000BD2DE9F04F05460E4617467D
:103AC0009846DDF824A04FF0000B781B401C1FFA2D
:103AD00080FB344613E021462846FDF79BF8FDF7AE
:103AE0007CF84FF0000906E08E48A0F800A009F12C
:103AF00001001FFA80F9D945F6DB601C84B2444509
:103B0000E9DDBDE8F08F2DE9F84F07460D469046F8
:103B10009946DDF828B0A8EB0700401C1FFA80FA90
:103B2000A9EB0500401C80B20090002414E0281985
:103B300081B23846FDF76EF8FDF74FF8002607E032
:103B400004FB0A603BF8100076490880701C86B2BE
:103B50005645F5DB601C84B200988442E7DBBDE883
:103B6000F88F2DE9FF4F84B081468A4600200390EC
:103B700002900698A0EB09050798A0EB0A06CDF87D
:103B80000490CDF800A0002D01DD012705E00DB95E
:103B9000002702E04FF0FF376D42002E02DD4FF0AC
:103BA000010806E016B94FF0000802E04FF0FF38B8
:103BB0007642B54201DD2C4600E034464FF0000B62
:103BC00021E0009A91B2019A90B2FDF72CFA039885
:103BD000284403900298304402900398A04205DDE7
:103BE0000398001B03900198384401900298A0426A
:103BF00005DD0298001B02900098404400900BF1F4
:103C000001001FFA80FB601C8345DADD08B0BDE8C7
:103C1000F08FF0B504460D4616461F462B46324639
:103C200029462046FFF79DFF3B462246294620466F
:103C3000FFF797FF3B46324639462046FFF791FF94
:103C40003B46324629463046FFF78BFFF0BD2DE953
:103C5000F04306460F469046002445460320A0EB5D
:103C600048093CE07A1B91B2321990B2FDF7DBF9BA
:103C70003A1B91B2721990B2FDF7D5F93A1991B287
:103C8000721990B2FDF7CFF97A1991B2321990B248
:103C9000FDF7C9F97A1991B2321B90B2FDF7C3F959
:103CA0003A1991B2721B90B2FDF7BDF97A1B91B22D
:103CB000321B90B2FDF7B7F93A1B91B2721B90B26A
:103CC000FDF7B1F9641CB9F1000F03DAA000801D03
:103CD000814404E0601B80000A3081446D1EAC42C8
:103CE000C0DDBDE8F0832DE9F84F80460E4617464B
:103CF0001C46B3462046E31704EB5373DB10214602
:103D00004FEAE47C04EB5C7C4FEAEC0CA4EBCC0CBB
:103D1000BCF1000F08D04FF0010C07E0D0010020EB
:103D2000808121420008006C4FF0000C6344224661
:103D300004EBD27C4FEA6C0C03FB0CF3DBB2009378
:103D4000A7F12000C7B2002556E00C2C07D107EBE5
:103D500047009F4901EB800010F8059013E0102CFC
:103D600005D19C4800EB071010F805900BE0182CCB
:103D700007D107EBC700984901EB800010F80590C8
:103D800001E0BDE8F88F4FF0000A2FE009F0800055
:103D900030B19248028831464046FDF752F907E0BB
:103DA0000A9828B98E48028831464046FDF749F9FD
:103DB0004FEA49604FEA1069701C86B28948408812
:103DC000B04200DCDDE7A6EB0B00A0420AD15E4664
:103DD00008F101001FFA80F882480088404500DCA5
:103DE000CFE706E00AF1010000F0FF0ABAF1080F80
:103DF000CCDB00BF681CC5B200988542A5DB00BFC4
:103E0000BFE710B50246012000E050430B1EA1F1B0
:103E10000104E1B2F9D110BD2DE9FF4F81B0074691
:103E200091461E460E9D4FF0000A002439E0301BDB
:103E3000401EC1B20A20FFF7E4FFB9FBF0F00A21EF
:103E4000B0FBF1F201FB1208BAF1000F16D1701E9F
:103E5000A04213DDB8F1000F0ED10020AB4605EBF8
:103E6000DB71491001FB0471009088B22B462022BF
:103E70000299FFF738FF12E04FF0010A0020AB462D
:103E800005EBDB71491001FB0471009088B208F169
:103E90003001CAB22B460299FFF725FF00BF601C14
:103EA000C4B2B442C3DB05B0BDE8F08F2DE9FF4FCB
:103EB00082B0064692461F46DDE90F480020019079
:103EC00000254DE0781B401EC1B20A20FFF799FF84
:103ED000BAFBF0F00A21B0FBF1F201FB12090198E4
:103EE00050BB781EA84227DDB9F1000F22D108F09F
:103EF000800078B108F00100A34604EBDB714910A3
:103F000001FB0561009088B2234630220399FFF738
:103F1000EAFE0EE008F00100A34604EBDB71491055
:103F200001FB0561009088B2234620220399FFF728
:103F3000DAFE13E00120019008F00100A34604EB33
:103F4000DB71491001FB0561009088B209F1300175
:103F5000CAB223460399FFF7C6FE00BF681CC5B26C
:103F6000BD42AFDB06B0BDE8F08F2DE9F84704464F
:103F70000D4690469946DDE9096704F0FF0A08EB13
:103F800004001FFA80F809EB05001FFA80F916E01B
:103F9000444502DB5446A81985B24D4500DB14E0C8
:103FA000002000903A78334629462046FFF79BFED2
:103FB000304606EBD07104EB61018CB27F1C38787F
:103FC0007E2802DC38782028E2DA00BFBDE8F887D6
:103FD000148E00088892000878980008DA00002003
:103FE000DC000020D00100202DE9F04188B004461B
:103FF0000D4616461F46DDF838800121042001F0E9
:10400000F9FD0121480601F002FE4FF48050ADF8A1
:104010001C0003208DF81E0018208DF81F0007A932
:104020004B4801F02BFB4FF40060ADF81C0048201A
:104030008DF81F0007A9464801F020FB00208DF8ED
:1040400016008DF817008DF8180001208DF8190062
:1040500000208DF81A008DF81B008DF812808DF865
:1040600013408DF814608DF81550ADF8107004A948
:10407000384801F03CFE00208DF80A008DF80B0056
:1040800001208DF80C000020ADF80000ADF8020012
:10409000ADF80400ADF80600ADF8080001208DF879
:1040A0000D00684601F0ADFE002008B0BDE8F081CB
:1040B000F0B585B007460D4600244FF4007000901F
:1040C000019000208DF808008DF809008DF80A5045
:1040D00000BF05E0395D0DF10B000155601C84B295
:1040E000AC42F7DB69461B4801F07AFF0646002424
:1040F00001E0601C84B23146164802F009F818B994
:1041000040F6FF708442F4DB40F6FF70844202DB2D
:10411000012005B0F0BD0020FBE730B585B00546B5
:1041200000210C4802F0D4F810B9002005B030BDD1
:104130006A460021074802F048F8002404E00DF127
:104140000B00005D2855641C082CF8D30098EDE79F
:104150000008014000640040024601EB022080B2EA
:1041600070471FB50446FE480088000A8DF80C0011
:10417000FB480078C0F303108DF80D00F848007874
:104180008DF80E00F74830F914000290F64800EB65
:10419000C40003C8CDE900019DF80E309DF80D2044
:1041A0009DF80C10F1A002F087FC1FBD2DE9F04F27
:1041B00087B081460124CDE059F82400F54931F853
:1041C0001410884205D00021F34A02EBC4021160AA
:1041D000516039F82400EF4921F814000BE0EF4852
:1041E000FFF79BFFDE490860ED4850F8240009689E
:1041F000884200D100E0F2E700BFE848807800F094
:10420000800078B1E54AD1789078FFF7A5FFC0F536
:1042100080304542284604F024F8D34A02EBC40219
:1042200003C20BE0DD4AD1789078FFF795FF054691
:1042300004F02EF8CC4A02EBC40203C259F8240061
:1042400004F00FF80746C84800EBC400D0E900535B
:104250002A46384604F014FAD24A02EBC40203C2DA
:10426000D04800EBC400D0E90053CB4800EBC400B9
:104270002A46D0E90071384603F096FDC64A02EBA3
:10428000C40203C2C84800EBC401C64800EBC40026
:10429000D1E900532A46D0E90071384604F0F0F91C
:1042A000C24A02EBC40203C2BE4800EBC400D0E91C
:1042B0000010BD4A02EBC402C2E90010BB4800EB8B
:1042C000C400D0E900532A460020B94903F0F4FFA6
:1042D000CDE90201B04800EBC400D0E900532A4602
:1042E000B448B54903F0E8FF07468846AD4800EBFF
:1042F000C400D0E900532A46B048B14903F0DCFFBE
:1043000082463A46434603F04FFDCDE90001DDE920
:10431000022303F049FDCDE9040103F045FF00B29B
:10432000904921F81400084630F91400B0F5FA5FFE
:1043300003DD4FF4FA5021F814008A4830F91400D4
:1043400010F5FA5F04DA4EF2C000864921F8140035
:10435000601CC4B2032C7FF72FAF9AA002F0ACFB15
:1043600080488078984948707E484088000A0870E4
:104370007C480079C8707B488088000A887079483A
:10438000807948717748C088000A087108218E48F2
:10439000FFF78EFE8D49087007B0BDE8F08F2DE95C
:1043A000F74F98B0884691460020139014901590CE
:1043B00016900F9010901190129082460E90B9F1C5
:1043C000000F12D100BF00BF05E00021804A42F873
:1043D0002010411CC8B20328F7DD00217D4A11607E
:1043E0007D4A11607D4A116000BF012442E00BE06C
:1043F0006A48FFF792FE5A490860694850F824005D
:104400000968884200D100E0F2E700BF634A5178B2
:104410001078FFF7A1FE724921F814005F488078F8
:1044200000F0800078B1084630F814006D4931F88A
:104430001410884216DD664850F82400401E644976
:1044400041F824000EE0664830F81400654931F860
:104450001410884206DA5E4850F82400401C5C497B
:1044600041F824005E4830F814005E4921F8140039
:10447000601CC4B2032CBADD5948418854484068D6
:1044800001EB4037564881885148806801EB403540
:104490005348C1884E48C06801EB4036A81B04F061
:1044A00045FB4FF08041099004F062FA834604F026
:1044B000D1F94D4A4D4BCDE90A0103F01DFDCDE97F
:1044C0000C0103F03FFC44490860C5EB4701881B21
:1044D00004F02CFB834604F0BDF9454A454BCDE979
:1044E000080103F009FD404A404BCDE90A0103F001
:1044F00003FDCDE90C0103F025FC3649086079196C
:10450000881904F013FB3C49099004F031FA834602
:1045100004F0A0F9344A354BCDE90A0103F0ECFC74
:10452000CDE90C0103F00EFC2C4908602A48006814
:1045300004F090F9CDE90C012648006804F08AF9EE
:10454000CDE90A01DDE90C01CDE900012BA0DDE98F
:104550000A2302F0B1FA189804F0E8FA834655E00D
:104560002801002048010020E001002049443A30A1
:10457000782564256425642020D7AACBD93A252E36
:1045800030662020CAE4B3F6B5E7C1F73A256420C7
:10459000200D0A0040010020400200201C010020E4
:1045A00030010020000200202002002060020020D4
:1045B0000000E03F7B14AE47E17A843F9A999999D5
:1045C0009999E93F0D0A0000140100202401002000
:1045D00080020020600100206401002068010020AA
:1045E0005001002058010020CDCCCCCCCCAA9A4060
:1045F00083C0CAA145B60B4000004040252E31665D
:104600002020252E31660D0A000000008C4801682C
:10461000584604F06FFB8B490860404604F086FA68
:10462000834689480168584604F064FB874908605E
:10463000844801688648006804F038F984490860B5
:10464000824801688348006804F030F981490860B5
:10465000814801687B48006804F04CFB7F49086092
:104660007F4801687948006804F044FB7D49086090
:1046700074480068784908607448006878490860A0
:10468000764801684FF0804004F068FA834604F0F1
:10469000E1F8CDE908016E48006804F0DBF8724AE1
:1046A000724BCDE9000103F007FECDE90401654836
:1046B00001686F4804F052FA834604F0CBF8CDE964
:1046C0000201DDE9042303F06FFBCDE90601DDE91A
:1046D000082303F069FB0022664BCDE90A0103F0D1
:1046E0000BFCCDE90C0103F02DFB82465D4801680F
:1046F0004FF0804004F032FA834604F0ABF8CDE985
:1047000008015448006804F0A5F8574A574BCDE912
:10471000000103F0D1FDCDE904014C480168544883
:1047200004F01CFA834604F095F8CDE90201DDE9B6
:10473000042303F039FBCDE90601DDE9082303F08A
:1047400033FB00224B4BCDE90A0103F0D5FBCDE949
:104750000C0103F0F7FA0E904749486804F0E6F9B7
:1047600051460D9004F0FAF98346109904F09EF832
:1047700010904149886804F0D9F951460D9004F031
:10478000EDF98346119904F091F811903A49C868FF
:1047900004F0CCF951460D9004F0E0F983461299EB
:1047A00004F084F812903549486804F0BFF90D9080
:1047B0000E9904F0D3F98346109904F077F810901D
:1047C0002E49886804F0B2F90D900E9904F0C6F9EC
:1047D0008346119904F06AF811902849C86804F0DA
:1047E000A5F90D900E9904F0B9F98346129904F0D9
:1047F0005DF81290109804F07DF91490119804F06F
:1048000079F91590129804F075F91690109804F043
:1048100021F8CDE90C01504604F01CF8CDE90A015D
:10482000DDE90C01CDE9000115A0DDE90A2302F064
:1048300043F913A8FFF7BAFC1BB0BDE8F08F0000E6
:10484000600100206C010020640100207001002044
:104850007C010020800100207401002084010020E0
:104860007801002088010020FCA9F1D24D62403F70
:104870000000A04000408F40F4000020E400002031
:1048800073706565645F583A252E306620206D6F21
:10489000746F725B315D3A252E30660D0A000000A0
:1048A000F048806940F00400EE498861EE480068F5
:1048B0004FF6F0718843EC4908600846006843F2FF
:1048C00030310843E84908600846006820F00F00CE
:1048D00008600846006840F008000860704738B576
:1048E0000446012000900020E0494870012000901B
:1048F0002EE0BDF80000204018B10120DC4908601E
:1049000002E00020DA4908600120D9490831086036
:10491000052000F0CEF90020D649C1F88C01052011
:1049200000F0C7F90120D349C1F88C010846D0F83E
:10493000000130B1CD484078BDF800100843CB49A4
:104940004870BDF800004FF6FF7101EA400000908A
:10495000BDF80000FF28CCDD102000F0AAF938BD1A
:1049600010B50020C249091D0860C3490878FFF747
:10497000B6FFC1494878FFF7B2FF0120BD49C1F831
:104980008801BA484078732801D1002010BD012069
:10499000FCE71CB500200190012000900020B449E4
:1049A000091D0860B4490878FFF799FFB2494878B3
:1049B000FFF795FF0220019036E00120009027E0EC
:1049C0000120AB4908310860052000F072F9002091
:1049D000A849C1F88C01052000F06BF90120A54918
:1049E000C1F88C010846D0F8000150B19F489DF8ED
:1049F0000410405CBDF8001008439C499DF8042059
:104A00008854BDF800004FF6FF7101EA40000090A5
:104A1000BDF80000FF28D3DD102000F04AF99DF812
:104A20000400401CC0B201909DF804000928C4DBBA
:104A300001208F49091D08601CBD002004E00021F1
:104A40008A4A1154411CC8B20928F8DB704710B5D6
:104A5000FFF7F3FFFFF79DFF8448C078834909798A
:104A600040EA0120854908800846008810BD0146BB
:104A70007E48405C704770B505460C4600207C4976
:104A8000091D0860102000F014F90120FFF727FF2E
:104A90004220FFF724FF0020FFF721FF2846FFF701
:104AA0001EFF2046FFF71BFF0020FFF718FF002026
:104AB000FFF715FF0020FFF712FF0020FFF70FFFA1
:104AC00001206C49C1F88801102000F0F2F870BD97
:104AD00010B500206649091D0860102000F0E9F8B3
:104AE0000120FFF7FCFE4220FFF7F9FE0020FFF750
:104AF000F6FE0020FFF7F3FE0020FFF7F0FE012096
:104B00005C49C1F88801102000F0D3F810BD10B541
:104B100000205749091D0860102000F0CAF8012044
:104B2000FFF7DDFE4320FFF7DAFE0020FFF7D7FE98
:104B30000120FFF7D4FE0020FFF7D1FE0020FFF791
:104B4000CEFE0020FFF7CBFE0020FFF7C8FE0020BE
:104B5000FFF7C5FE01204749C1F88801102000F089
:104B6000A8F810BD10B500204149091D08600120BA
:104B7000FFF7B5FE4420FFF7B2FE0020FFF7AFFEBF
:104B80000120FFF7ACFE0320FFF7A9FE0020FFF78E
:104B9000A6FE0020FFF7A3FE0020FFF7A0FE0020E6
:104BA000FFF79DFE01203349C1F88801102000F075
:104BB00080F810BD10B500202D49091D0860102097
:104BC00000F077F80120FFF78AFE4D20FFF787FEFF
:104BD0000020FFF784FE0020FFF781FE0120FFF791
:104BE0007EFE01202349C1F88801102000F061F801
:104BF00010BD10B500201E49091D0860102000F0EE
:104C000058F80120FFF76BFE4320FFF768FE0020F5
:104C1000FFF765FE0020FFF762FE5A20FFF75FFEF8
:104C20005A20FFF75CFE5A20FFF759FE5A20FFF783
:104C300056FE5A20FFF753FE01200E49C1F88801A5
:104C4000102000F036F810BD10B5FFF741FFFFF758
:104C50003FFFFFF73DFFFFF75AFFFFF783FFFFF727
:104C6000C8FF10BD00100240000801409002002063
:104C700084012142000021428E0100208C0100208D
:104C800010B56FF0040000F074F92E4800682E494A
:104C9000B0FBF1F02D4908700846007800EB4001A8
:104CA000C1EBC0104FF6FF7101EAC000284908802F
:104CB00010BD0146254A12784A434FF0E0235A615D
:104CC00000229A611A46126942F001021A6100BF7D
:104CD0004FF0E022106900F001021AB100F48032B6
:104CE000002AF5D04FF0E022126922F001024FF0C5
:104CF000E0231A6100229A6170470146144A128823
:104D00004A434FF0E0235A6100229A611A46126921
:104D100042F001021A6100BF4FF0E022106900F07A
:104D200001021AB100F48032002AF5D04FF0E022DF
:104D3000126922F001024FF0E0231A6100229A6109
:104D400070470000C400002000127A00B00100206B
:104D5000B201002000BF704700BF4A4A128802F02B
:104D60004002002AF9D0C2B2464B1B1D1A80704780
:104D700010B586B00446012144F2040000F03AFF69
:104D80004FF40070ADF8140003208DF816001820C1
:104D90008DF8170005A93C4800F070FC4FF48060C6
:104DA000ADF8140004208DF8170005A9364800F06E
:104DB00065FC25208DF8000003208DF801008DF89A
:104DC000020001208DF80300684600F088F8019485
:104DD0000020ADF80800ADF80A00ADF80C00ADF801
:104DE00010000C20ADF80E0001A9264801F0A1FC2E
:104DF000012240F22551234801F033FD01212148D1
:104E000001F023FD06B010BD10B540F225511D483C
:104E100001F00CFE10B31B4801F088FDC4B21B4822
:104E2000008800F40040C8B91848008800F48040A9
:104E300060B10A2C03D000201449088020E01348F8
:104E4000008840F400401149088019E00D2C06D17B
:104E50000E48008840F480400C49088010E00B4860
:104E60000088C0F30D000A490C5408480088401C13
:104E70000649088008460088C72801DD0020088010
:104E800010BD00000038014000080140B8010020BA
:104E9000990200200948804709480047FEE7FEE7DD
:104EA000FEE7FEE7FEE7FEE7FEE7FEE7FEE7FEE7DA
:104EB00004480549054A064B70470000530900089D
:104EC00031010008C8030020C8090020C8050020DF
:104ED000C805002031490143314A1160704770B55F
:104EE000002100230F22C47804B32D4C246804F45D
:104EF000E064C4F5E064210AC1F10403CA404478C7
:104F000004FA03F18478144021430901254C067802
:104F1000A155047804F01F050124AC4005786D11FB
:104F2000AD0005F1E025C5F8004109E0047804F082
:104F30001F050124AC401C4D0678761145F826402B
:104F400070BD1A4A0A400243154B1B1F1A60704776
:104F500039B1134A121D12680243114B1B1D1A600E
:104F600006E00F4A121D126882430D4B1B1D1A608A
:104F70007047042808D14FF0E021096941F004018D
:104F80004FF0E022116107E04FF0E021096921F0C4
:104F900004014FF0E0221161704700000000FA05A3
:104FA0000CED00E000E400E080E100E080FFFF1F86
:104FB00030B943F2DB028100A1F1C0410A6005E093
:104FC00043F2D2028100A1F1C0410A606FF0704249
:104FD000411C8900A1F1C0410A608100A1F1C041DA
:104FE000C1F80421704710280AD118214FF020423F
:104FF0001166402151664FF0FC319166D16610E098
:105000001821F74A116040214FF02042C2F8841065
:105010004FF0FC31F24A083211604FF02042C2F8E2
:105020008C1070471820EE492031086000200906D6
:10503000C1F8A4004FF0FC30E94928310860091D8F
:105040000860091D08607047D0E901121143C26869
:105050001143026911434269114382691143C269D4
:105060001143026A1143426A1143826A1143C26AC0
:105070001143026B114302689200A2F1C042116019
:10508000816808290BD101688900A1F1C041096834
:1050900041F0400201688900A1F1C0410A60416B02
:1050A0000968426B526841EA0211426B926841EA18
:1050B0000221426B928941EA0241426B128A41EA23
:1050C0000251426B127D41EA0261426B92691143C7
:1050D0000268521C9200A2F1C0421160C16AB1F58F
:1050E000804F1BD1816B0968826B526841EA0211C3
:1050F000826B926841EA0221826B128A41EA025174
:10510000826B127D41EA0261826B926911430268EF
:105110009200A2F1C042C2F8041107E06FF07042A1
:1051200001688900A1F1C041C1F80421704730B580
:10513000002100220023446844F0080485682C43C1
:10514000C5682C4305692C43456944EA45248569B3
:1051500044EA4531C4692468C5696D6844EA052498
:10516000C5692D8944EA0544C5692D7B44EA056279
:10517000046A2468056A6D6844EA0524056A2D8975
:1051800044EA0544056A2D7B44EA05630468102C53
:1051900005D14FF020442166A266E36608E0904CFA
:1051A00021604FF02044C4F888208D4C0C342360DB
:1051B00030BD016841F01001426841EA4221826835
:1051C00041EA4231864A20321160C1680968C268EA
:1051D000526841EA0221C268128941EA0241C2686A
:1051E000127B41EA02617E4A283211600169096836
:1051F0000269526841EA02210269128941EA0241C8
:105200000269127B41EA0261754A2C3211604169E0
:1052100009684269526841EA02214269128941EAF9
:1052200002414269127B41EA02614FF02042C2F81A
:10523000B0107047002101600221416000218160AF
:10524000C160016141618161C16101624FF48051BE
:105250004162490081620021C16201630F21426BFA
:105260001160426B5160FF21426B91600F21426BD4
:10527000D160426B1161426B51610021426B9161BF
:105280000F21826B1160826B5160FF21826B9160F4
:105290000F21826BD160826B1161826B51610021A1
:1052A000826B916170471021016000214160816033
:1052B000C160016141618161FC21C2691160C26903
:1052C0005160C2699160C269D160026A1160026A6C
:1052D0005160026A9160026AD160704700210160EA
:1052E00041608160FC21C2681160C2685160C2687F
:1052F0009160C268D16002691160026951600269FF
:1053000091600269D16042691160426951604269ED
:1053100091604269D160704751B18200A2F1C042F0
:10532000126842F001038200A2F1C042136009E05A
:105330008200A2F1C04212682A4B1A408300A3F1F6
:10534000C0431A60704799B1102808D14FF020422D
:10535000126E42F004024FF020431A661DE0204A0C
:10536000126842F004024FF02043C3F8802014E09A
:10537000102809D14FF02042126E1A4BDB1E1A4042
:105380004FF020431A6608E0154A1268154BDB1EE1
:105390001A404FF02043C3F88020704748B11049AD
:1053A0002031096841F004014FF02042C2F8A010FA
:1053B00009E00B49203109680A4AD21E11404FF01A
:1053C0002042C2F8A0107047B9B110280CD14FF09C
:1053D0002042126E42F040024FF020431A661FE056
:1053E000800000A0FEFF0F00724A126842F04002E7
:1053F0004FF02043C3F8802012E0102808D14FF06E
:105400002042126E6C4B1A404FF020431A6607E0A0
:10541000684A1268684B1A404FF02043C3F8802056
:10542000704701460020102903D14FF02042506FF1
:1054300002E0604A14321068704710B5F2B11028CB
:1054400007D14FF020435B6E0B434FF0204463665F
:1054500032E0B0F5807F08D1564B1B1D1B680B4313
:105460004FF02044C4F8843026E0524B24331B68AC
:105470000B434FF02044C4F8A4301DE0102807D19E
:105480004FF020435B6E8B434FF02044636613E084
:10549000B0F5807F08D1474B1B1D1B688B434FF035
:1054A0002044C4F8843007E0424B24331B688B430C
:1054B0004FF02044C4F8A43010BD10B502460020BF
:1054C0000023102A03D14FF02044636E09E0B2F5A7
:1054D000807F03D1374C241D236802E0354C2434EF
:1054E000236803EA01040CB1012000E0002010BD94
:1054F000102807D14FF02042526E8A434FF02043CC
:105500005A6613E0B0F5807F08D12A4A121D12684E
:105510008A434FF02043C3F8842007E0254A243211
:1055200012688A434FF02043C3F8A420704770B537
:1055300002460020002300240025102A03D14FF04A
:105540002046736E09E0B2F5807F03D1194E361DF7
:10555000336802E0174E2436336803EA010403EA95
:10556000D10514B10DB1012000E0002070BD10285C
:1055700008D14FF02042526E22EAD1024FF0204370
:105580005A6615E0B0F5807F09D10A4A121D1268EB
:1055900022EAD1024FF02043C3F8842008E0054AF4
:1055A0002432126822EAD1024FF02043C3F8A4202B
:1055B00070470000800000A0BFFF0F0010B5044638
:1055C000CC48844208D10121042000F02DFB0021A9
:1055D000042000F029FB46E0C748844208D101219D
:1055E000082000F021FB0021082000F01DFB3AE01C
:1055F000C248844208D10121102000F015FB00218F
:10560000102000F011FB2EE0BD48844208D101219A
:10561000202000F009FB0021202000F005FB22E003
:10562000B848844208D10121402000F0FDFA002151
:10563000402000F0F9FA16E0B348844208D1012175
:10564000802000F0F1FA0021802000F0EDFA0AE05D
:10565000AE48844207D10121801500F0E5FA00210F
:10566000A01500F0E1FA10BD10B50121084600F0C8
:10567000DBFA0021012000F0D7FA10BD2DE9F0413E
:10568000024600250026002000230024002791F870
:1056900003C00CF00F0591F803C00CF0100CBCF126
:1056A000000F03D091F802C04CEA050591F800C044
:1056B000BCF1000F31D0146800202BE04FF0010C3A
:1056C0000CFA00F3B1F800C00CEA03069E4220D1A8
:1056D00083004FF00F0C0CFA03F7BC4305FA03FCF0
:1056E0004CEA040491F803C0BCF1280F06D14FF036
:1056F000010C0CFA00FCC2F814C00AE091F803C0D7
:10570000BCF1480F05D14FF0010C0CFA00FCC2F8B7
:1057100010C0401C0828D1D31460B1F800C0BCF1FF
:10572000FF0F34DD546800202EE000F1080C4FF02C
:10573000010808FA0CF3B1F800C00CEA03069E4217
:1057400021D183004FF00F0C0CFA03F7BC4305FA8C
:1057500003FC4CEA040491F803C0BCF1280F05D106
:1057600000F1080C08FA0CF8C2F8148091F803C094
:10577000BCF1480F07D100F1080C4FF0010808FAFE
:105780000CF8C2F81080401C0828CED35460BDE845
:10579000F0814FF6FF710180022181700421C170F8
:1057A00070470246002093680B400BB1012000E0D7
:1057B000002070470146886880B27047024600208A
:1057C000D3680B400BB1012000E000207047014678
:1057D000C86880B2704701617047416170470AB183
:1057E000016100E041617047C16070474FF4803251
:1057F0000A438261816182618269826970470246DF
:105800000020434B18684FF68073184040EA02109E
:1058100008433F4B186070473E49C8617047F0B578
:105820000A46002300240021002500F00046B6F1BE
:10583000004F02D1364EF16901E0354E7168C0F378
:10584000034583B200F44016B6F5401F08D121F09D
:1058500070612F4E766826F070662D4F7E6012E0E4
:1058600000F48016B6F5801F06D1032606FA05F46B
:10587000A14341F0706106E0460D360103FA06F6D9
:10588000B14341F0706122B1460D360103FA06F6CC
:10589000314300F00046B6F1004F02D11C4EF161D9
:1058A00001E01B4E7160F0BD30B500228B071C0F6C
:1058B0000F2303FA04F2164B08338C1053F82430EC
:1058C0009343134C08348D1044F8253023468C1034
:1058D00053F824308C07240F00FA04F423430C4CB3
:1058E00008348D1044F8253030BD0A49DC31086099
:1058F0007047000000080140000C0140001001400A
:105900000014014000180140001C0140002001402B
:105910000000014000002042DF48006840F0010024
:10592000DD49086008464068DC490840DA494860BB
:1059300008460068DA490840D74908600846006808
:1059400020F4802008600846406820F4FE0048608B
:105950004FF41F0088607047CF49096821F48031F7
:10596000CD4A11601146096821F480211160B0F51B
:10597000803F03D0B0F5802F0ED106E0C6490968FC
:1059800041F48031C44A116007E0C349096841F419
:10599000A021C14A116000E000BF00BF704710B5F0
:1059A00001460022002300204A11012A02D1BA4CEC
:1059B000236806E0022A02D1B74C236A01E0B64C04
:1059C000636A01F01F02012494401C400CB10120C5
:1059D00000E0002010BD38B5002000900024002514
:1059E00000BF3120FFF7DBFF05460098401C009008
:1059F0000098B0F5A06F01D0002DF2D03120FFF754
:105A0000CEFF08B1012400E00024204638BD014645
:105A10000020A14A106820F0F80040EAC1001060A0
:105A20007047A04908607047024600209A4B5868AA
:105A300020F47C1042EA01031843974B58607047EA
:105A400098490866704701460020934A506820F044
:105A500003000843506070478F48406800F00C0016
:105A60007047014600208C4A506820F0F00008433F
:105A70005060704701460020874A506820F4E0607B
:105A800008435060704701460020834A506820F464
:105A9000605040EAC1005060704729B17E4A527A96
:105AA00002437D4B5A7204E07B4A527A82437A4B1E
:105AB0005A7270477B49D831086070470146002010
:105AC000754A506820F440400843506070470021F8
:105AD000714A20321170704A82F82010012802D0D9
